{
  "contractName": "SmartContract",
  "abi": [
    {
      "inputs": [],
      "stateMutability": "nonpayable",
      "type": "constructor"
    },
    {
      "inputs": [],
      "name": "isRegistered",
      "outputs": [
        {
          "internalType": "bool",
          "name": "",
          "type": "bool"
        }
      ],
      "stateMutability": "view",
      "type": "function"
    },
    {
      "inputs": [
        {
          "internalType": "string",
          "name": "fullName",
          "type": "string"
        },
        {
          "internalType": "bool",
          "name": "isCompany",
          "type": "bool"
        }
      ],
      "name": "registerUser",
      "outputs": [],
      "stateMutability": "nonpayable",
      "type": "function"
    },
    {
      "inputs": [],
      "name": "getUser",
      "outputs": [
        {
          "components": [
            {
              "internalType": "string",
              "name": "fullName",
              "type": "string"
            },
            {
              "internalType": "bool",
              "name": "isRegistered",
              "type": "bool"
            },
            {
              "internalType": "bool",
              "name": "isCompany",
              "type": "bool"
            }
          ],
          "internalType": "struct SmartContract.User",
          "name": "",
          "type": "tuple"
        }
      ],
      "stateMutability": "view",
      "type": "function"
    },
    {
      "inputs": [
        {
          "internalType": "string",
          "name": "title",
          "type": "string"
        },
        {
          "internalType": "uint8",
          "name": "fromMonth",
          "type": "uint8"
        },
        {
          "internalType": "uint16",
          "name": "fromYear",
          "type": "uint16"
        },
        {
          "internalType": "uint8",
          "name": "toMonth",
          "type": "uint8"
        },
        {
          "internalType": "uint16",
          "name": "toYear",
          "type": "uint16"
        },
        {
          "internalType": "address",
          "name": "issuingOrganization",
          "type": "address"
        }
      ],
      "name": "addDegree",
      "outputs": [],
      "stateMutability": "nonpayable",
      "type": "function"
    },
    {
      "inputs": [
        {
          "internalType": "string",
          "name": "name",
          "type": "string"
        },
        {
          "internalType": "uint8",
          "name": "issueMonth",
          "type": "uint8"
        },
        {
          "internalType": "uint16",
          "name": "issueYear",
          "type": "uint16"
        },
        {
          "internalType": "uint8",
          "name": "expirationMonth",
          "type": "uint8"
        },
        {
          "internalType": "uint16",
          "name": "expirationYear",
          "type": "uint16"
        },
        {
          "internalType": "address",
          "name": "issuingOrganization",
          "type": "address"
        }
      ],
      "name": "addCertification",
      "outputs": [],
      "stateMutability": "nonpayable",
      "type": "function"
    },
    {
      "inputs": [
        {
          "internalType": "string",
          "name": "designation",
          "type": "string"
        },
        {
          "internalType": "uint8",
          "name": "fromMonth",
          "type": "uint8"
        },
        {
          "internalType": "uint16",
          "name": "fromYear",
          "type": "uint16"
        },
        {
          "internalType": "uint8",
          "name": "toMonth",
          "type": "uint8"
        },
        {
          "internalType": "uint16",
          "name": "toYear",
          "type": "uint16"
        },
        {
          "internalType": "address",
          "name": "issuingOrganization",
          "type": "address"
        }
      ],
      "name": "addWorkExperience",
      "outputs": [],
      "stateMutability": "nonpayable",
      "type": "function"
    },
    {
      "inputs": [],
      "name": "getAllCompanies",
      "outputs": [
        {
          "internalType": "address[]",
          "name": "",
          "type": "address[]"
        },
        {
          "internalType": "string[]",
          "name": "",
          "type": "string[]"
        }
      ],
      "stateMutability": "view",
      "type": "function"
    },
    {
      "inputs": [],
      "name": "getUserData",
      "outputs": [
        {
          "components": [
            {
              "internalType": "string",
              "name": "title",
              "type": "string"
            },
            {
              "internalType": "uint8",
              "name": "fromMonth",
              "type": "uint8"
            },
            {
              "internalType": "uint16",
              "name": "fromYear",
              "type": "uint16"
            },
            {
              "internalType": "uint8",
              "name": "toMonth",
              "type": "uint8"
            },
            {
              "internalType": "uint16",
              "name": "toYear",
              "type": "uint16"
            },
            {
              "internalType": "address",
              "name": "issuingOrganization",
              "type": "address"
            },
            {
              "internalType": "bool",
              "name": "isVerified",
              "type": "bool"
            }
          ],
          "internalType": "struct SmartContract.Degree[]",
          "name": "",
          "type": "tuple[]"
        },
        {
          "components": [
            {
              "internalType": "string",
              "name": "name",
              "type": "string"
            },
            {
              "internalType": "uint8",
              "name": "issueMonth",
              "type": "uint8"
            },
            {
              "internalType": "uint16",
              "name": "issueYear",
              "type": "uint16"
            },
            {
              "internalType": "uint8",
              "name": "expirationMonth",
              "type": "uint8"
            },
            {
              "internalType": "uint16",
              "name": "expirationYear",
              "type": "uint16"
            },
            {
              "internalType": "address",
              "name": "issuingOrganization",
              "type": "address"
            },
            {
              "internalType": "bool",
              "name": "isVerified",
              "type": "bool"
            }
          ],
          "internalType": "struct SmartContract.Certification[]",
          "name": "",
          "type": "tuple[]"
        },
        {
          "components": [
            {
              "internalType": "string",
              "name": "designation",
              "type": "string"
            },
            {
              "internalType": "uint8",
              "name": "fromMonth",
              "type": "uint8"
            },
            {
              "internalType": "uint16",
              "name": "fromYear",
              "type": "uint16"
            },
            {
              "internalType": "uint8",
              "name": "toMonth",
              "type": "uint8"
            },
            {
              "internalType": "uint16",
              "name": "toYear",
              "type": "uint16"
            },
            {
              "internalType": "address",
              "name": "issuingOrganization",
              "type": "address"
            },
            {
              "internalType": "bool",
              "name": "isVerified",
              "type": "bool"
            }
          ],
          "internalType": "struct SmartContract.WorkExperience[]",
          "name": "",
          "type": "tuple[]"
        }
      ],
      "stateMutability": "view",
      "type": "function"
    }
  ],
  "bytecode": "0x60806040523480156200001157600080fd5b50620000226200002860201b60201c565b62001c0a565b6000604051806105e001604052806040518060400160405280601381526020017f556e6976657273697479206f662044756261690000000000000000000000000081525081526020016040518060400160405280601c81526020017f416d65726963616e20556e697665727369747920696e2044756261690000000081525081526020016040518060400160405280601081526020017f5a6179656420556e69766572736974790000000000000000000000000000000081525081526020016040518060400160405280601581526020017f4475626169204d65646963616c20436f6c6c6567650000000000000000000000815250815260200160405180606001604052806021815260200162003fc36021913981526020016040518060400160405280601a81526020017f4d6964646c6573657820556e697665727369747920447562616900000000000081525081526020016040518060400160405280601881526020017f4d616e6970616c20556e69766572736974792044756261690000000000000000815250815260200160405180606001604052806039815260200162003e136039913981526020016040518060400160405280601c81526020017f486572696f742d5761747420556e697665727369747920447562616900000000815250815260200160405180606001604052806031815260200162003e7e6031913981526020016040518060400160405280600581526020017f5564656d7900000000000000000000000000000000000000000000000000000081525081526020016040518060400160405280600881526020017f436f75727365726100000000000000000000000000000000000000000000000081525081526020016040518060400160405280600381526020017f49424d000000000000000000000000000000000000000000000000000000000081525081526020016040518060400160405280600981526020017f4d6963726f736f6674000000000000000000000000000000000000000000000081525081526020016040518060400160405280600681526020017f476f6f676c65000000000000000000000000000000000000000000000000000081525081526020016040518060400160405280601481526020017f427572656175205665726974617320447562616900000000000000000000000081525081526020016040518060400160405280601781526020017f54555620535544204d6964646c65204561737420465a4500000000000000000081525081526020016040518060400160405280601d81526020017f44756261692053696c69636f6e204f6173697320417574686f7269747900000081525081526020016040518060400160405280600881526020017f447562616965796500000000000000000000000000000000000000000000000081525081526020016040518060400160405280601381526020017f447562616920496e7465726e657420436974790000000000000000000000000081525081526020016040518060400160405280600b81526020017f5465636f6d2047726f757000000000000000000000000000000000000000000081525081526020016040518060400160405280601481526020017f496e6a617a617420446174612053797374656d73000000000000000000000000815250815260200160405180606001604052806028815260200162003f266028913981526020016040518060600160405280602e815260200162003ef8602e913981526020016040518060400160405280600a81526020017f44752054656c65636f6d0000000000000000000000000000000000000000000081525081526020016040518060400160405280601381526020017f4e657577617973204d6964646c6520456173740000000000000000000000000081525081526020016040518060400160405280600f81526020017f447562616920506574726f6c65756d0000000000000000000000000000000000815250815260200160405180606001604052806024815260200162003ed46024913981526020016040518060400160405280601e81526020017f447562616920537570706c7920417574686f7269747920284455535550290000815250815260200160405180606001604052806026815260200162003fe4602691398152602001604051806060016040528060288152602001620040336028913981526020016040518060600160405280602981526020016200400a60299139815260200160405180606001604052806028815260200162003f7a60289139815260200160405180606001604052806032815260200162003e4c60329139815260200160405180606001604052806025815260200162003eaf60259139815260200160405180606001604052806021815260200162003fa26021913981526020016040518060400160405280600e81526020017f456d6972617465732047726f757000000000000000000000000000000000000081525081526020016040518060400160405280600e81526020017f447562616920416c756d696e756d00000000000000000000000000000000000081525081526020016040518060600160405280602c815260200162003f4e602c913981526020016040518060400160405280601881526020017f447562616920576f726c642054726164652043656e747265000000000000000081525081526020016040518060400160405280600e81526020017f447562616920416972706f72747300000000000000000000000000000000000081525081526020016040518060400160405280601d81526020017f44756261692053696c69636f6e204f6173697320417574686f7269747900000081525081526020016040518060400160405280600b81526020017f447562616920576f726c6400000000000000000000000000000000000000000081525081526020016040518060400160405280601581526020017f447562616920496e647573747269616c2043697479000000000000000000000081525081526020016040518060400160405280600b81526020017f447562616920536f75746800000000000000000000000000000000000000000081525081526020016040518060400160405280600d81526020017f447562616920486f6c64696e670000000000000000000000000000000000000081525081526020016040518060400160405280600981526020017f447562616920464449000000000000000000000000000000000000000000000081525081525090506000604051806105e0016040528073bd909b88028445a706eb385ffe86aed3dc859e6373ffffffffffffffffffffffffffffffffffffffff1673ffffffffffffffffffffffffffffffffffffffff16815260200173720366a18a4af591710204dc75ad3d67e090a6db73ffffffffffffffffffffffffffffffffffffffff1673ffffffffffffffffffffffffffffffffffffffff16815260200173579c26abf48abcc4bd12bdef245cf75264c63ce573ffffffffffffffffffffffffffffffffffffffff1673ffffffffffffffffffffffffffffffffffffffff16815260200173ed9346917aa7fca8632162cd8eabe1109040840773ffffffffffffffffffffffffffffffffffffffff1673ffffffffffffffffffffffffffffffffffffffff16815260200173ba14d5eb8f38bf8b69d26328f291d83bc46a6f9273ffffffffffffffffffffffffffffffffffffffff1673ffffffffffffffffffffffffffffffffffffffff16815260200173498399f29b18acc904f70b3bd9b49fa3298a43ea73ffffffffffffffffffffffffffffffffffffffff1673ffffffffffffffffffffffffffffffffffffffff168152602001737ea7f230fb81a8cbb2ca0acb7b439e0e22c6157473ffffffffffffffffffffffffffffffffffffffff1673ffffffffffffffffffffffffffffffffffffffff1681526020017346fa5aed911ecb05f9b0f0a1097197911e35cede73ffffffffffffffffffffffffffffffffffffffff1673ffffffffffffffffffffffffffffffffffffffff16815260200173f794e3abfa38a8715c7c73f9aa3fff9397b2ab6f73ffffffffffffffffffffffffffffffffffffffff1673ffffffffffffffffffffffffffffffffffffffff16815260200173ebdcc2a8656811d4391e29f38833eb45ad7435b473ffffffffffffffffffffffffffffffffffffffff1673ffffffffffffffffffffffffffffffffffffffff16815260200173de630dda9d8471a6da019be84abd67955d4df73773ffffffffffffffffffffffffffffffffffffffff1673ffffffffffffffffffffffffffffffffffffffff168152602001736dd28b0448f52906e54efce07e045a2d5235c9dd73ffffffffffffffffffffffffffffffffffffffff1673ffffffffffffffffffffffffffffffffffffffff16815260200173fcce884577e8141292cf01b6b8151ee58ddf4e8973ffffffffffffffffffffffffffffffffffffffff1673ffffffffffffffffffffffffffffffffffffffff1681526020017327758a77133f3c639b13fce0e9bfdd761fc63a9973ffffffffffffffffffffffffffffffffffffffff1673ffffffffffffffffffffffffffffffffffffffff16815260200173f2fdbdf4ce705a65499807c06e9b2555b3a246af73ffffffffffffffffffffffffffffffffffffffff1673ffffffffffffffffffffffffffffffffffffffff16815260200173156bb0b8694bb32613d19213aa831fa35a7faed773ffffffffffffffffffffffffffffffffffffffff1673ffffffffffffffffffffffffffffffffffffffff16815260200173acb971d22be689af41d3bc951a51d98cfc5f128573ffffffffffffffffffffffffffffffffffffffff1673ffffffffffffffffffffffffffffffffffffffff168152602001734dba88fb1d62434a792b881d1c042260d756030173ffffffffffffffffffffffffffffffffffffffff1673ffffffffffffffffffffffffffffffffffffffff16815260200173d220cfe1f00bbec7d33e7ce3e84a10ea6319dfe873ffffffffffffffffffffffffffffffffffffffff1673ffffffffffffffffffffffffffffffffffffffff1681526020017374191823cdec73659852b102ebf3b394361c040073ffffffffffffffffffffffffffffffffffffffff1673ffffffffffffffffffffffffffffffffffffffff16815260200173d3dd672cb08b363a4418ffacabb3e296de51c1fc73ffffffffffffffffffffffffffffffffffffffff1673ffffffffffffffffffffffffffffffffffffffff16815260200173f0b90773e5ce54d5eed8e466b6b01ca41038e92c73ffffffffffffffffffffffffffffffffffffffff1673ffffffffffffffffffffffffffffffffffffffff16815260200173ac708413dc159996c0fd39e6483e339295f7eddb73ffffffffffffffffffffffffffffffffffffffff1673ffffffffffffffffffffffffffffffffffffffff168152602001731b37084eeb880645556034711e04334ccd5e940373ffffffffffffffffffffffffffffffffffffffff1673ffffffffffffffffffffffffffffffffffffffff168152602001735defb46543fe2ba58299cbb5a7b6cac60ed9259873ffffffffffffffffffffffffffffffffffffffff1673ffffffffffffffffffffffffffffffffffffffff16815260200173f04b734596560878cb71444b307fb89f2494994773ffffffffffffffffffffffffffffffffffffffff1673ffffffffffffffffffffffffffffffffffffffff168152602001738740cd5143d3f3cab4095bd44901cab7b653302173ffffffffffffffffffffffffffffffffffffffff1673ffffffffffffffffffffffffffffffffffffffff168152602001738828d40bcea1b75cd566c7b4738ece974f20212573ffffffffffffffffffffffffffffffffffffffff1673ffffffffffffffffffffffffffffffffffffffff168152602001734763acfd72fb8fee0ad93c3a1df5f95b34366cd173ffffffffffffffffffffffffffffffffffffffff1673ffffffffffffffffffffffffffffffffffffffff16815260200173ed8c2904d28a41d7ad999e399d0c36e6ecc616cb73ffffffffffffffffffffffffffffffffffffffff1673ffffffffffffffffffffffffffffffffffffffff16815260200173fc0943d3cbfc82b1389e24e1e367f8381c89d4a773ffffffffffffffffffffffffffffffffffffffff1673ffffffffffffffffffffffffffffffffffffffff16815260200173c1ded051e5ba5a0d78a97298f7507e3cee05b5ef73ffffffffffffffffffffffffffffffffffffffff1673ffffffffffffffffffffffffffffffffffffffff168152602001731485efd3069a47c061e8ee4f368d0c281ee5d07273ffffffffffffffffffffffffffffffffffffffff1673ffffffffffffffffffffffffffffffffffffffff16815260200173a13c1497f3a753754ee60d6a8834b4b6a282a70273ffffffffffffffffffffffffffffffffffffffff1673ffffffffffffffffffffffffffffffffffffffff168152602001730725675c6b734b94b362d48a5374f44985bb661373ffffffffffffffffffffffffffffffffffffffff1673ffffffffffffffffffffffffffffffffffffffff1681526020017371a519405224f9b4e5798e35af62f0b7e2862eed73ffffffffffffffffffffffffffffffffffffffff1673ffffffffffffffffffffffffffffffffffffffff168152602001733de2bc4e3092eda25936dbd99b18d765a834a7a673ffffffffffffffffffffffffffffffffffffffff1673ffffffffffffffffffffffffffffffffffffffff168152602001735ab347895e0e06812ddd75eb6c7105de059c4c2973ffffffffffffffffffffffffffffffffffffffff1673ffffffffffffffffffffffffffffffffffffffff1681526020017317025d0bc02c9dfc0e375fd92272f7278ff0d95573ffffffffffffffffffffffffffffffffffffffff1673ffffffffffffffffffffffffffffffffffffffff1681526020017332b42640ae11d8e6c57e275f470a2cb69736e21b73ffffffffffffffffffffffffffffffffffffffff1673ffffffffffffffffffffffffffffffffffffffff16815260200173333b5462ca4ed82f26459e2fc4a539c11d74112473ffffffffffffffffffffffffffffffffffffffff1673ffffffffffffffffffffffffffffffffffffffff168152602001734804b60fd5f292d38022401c5b67673bb6753ce873ffffffffffffffffffffffffffffffffffffffff1673ffffffffffffffffffffffffffffffffffffffff16815260200173dc0db174f69eb7be9bc2068ed21588f793a8db7d73ffffffffffffffffffffffffffffffffffffffff1673ffffffffffffffffffffffffffffffffffffffff16815260200173aa6850ae1cb621f64f754005c15abe98417fcc4b73ffffffffffffffffffffffffffffffffffffffff1673ffffffffffffffffffffffffffffffffffffffff168152602001735ae20eb15636f5e9a51bccfd90a194a14fc1430b73ffffffffffffffffffffffffffffffffffffffff1673ffffffffffffffffffffffffffffffffffffffff16815260200173b07260c5760f02821e8796c434a2b94ab8a7cf9173ffffffffffffffffffffffffffffffffffffffff1673ffffffffffffffffffffffffffffffffffffffff16815260200173ea8dd0978bb09d9bca9e178984428514eb3ab63073ffffffffffffffffffffffffffffffffffffffff1673ffffffffffffffffffffffffffffffffffffffff16815250905060005b602f811015620017f95760018282602f811062001690576200168f620017fe565b5b60200201519080600181540180825580915050600190039060005260206000200160009091909190916101000a81548173ffffffffffffffffffffffffffffffffffffffff021916908373ffffffffffffffffffffffffffffffffffffffff16021790555060405180606001604052808483602f8110620017165762001715620017fe565b5b60200201518152602001600115158152602001600115158152506000808484602f8110620017495762001748620017fe565b5b602002015173ffffffffffffffffffffffffffffffffffffffff1673ffffffffffffffffffffffffffffffffffffffff16815260200190815260200160002060008201518160000190816200179f919062001aa7565b5060208201518160010160006101000a81548160ff02191690831515021790555060408201518160010160016101000a81548160ff0219169083151502179055509050508080620017f09062001bbd565b9150506200166e565b505050565b7f4e487b7100000000000000000000000000000000000000000000000000000000600052603260045260246000fd5b600081519050919050565b7f4e487b7100000000000000000000000000000000000000000000000000000000600052604160045260246000fd5b7f4e487b7100000000000000000000000000000000000000000000000000000000600052602260045260246000fd5b60006002820490506001821680620018af57607f821691505b602082108103620018c557620018c462001867565b5b50919050565b60008190508160005260206000209050919050565b60006020601f8301049050919050565b600082821b905092915050565b6000600883026200192f7fffffffffffffffffffffffffffffffffffffffffffffffffffffffffffffffff82620018f0565b6200193b8683620018f0565b95508019841693508086168417925050509392505050565b6000819050919050565b6000819050919050565b600062001988620019826200197c8462001953565b6200195d565b62001953565b9050919050565b6000819050919050565b620019a48362001967565b620019bc620019b3826200198f565b848454620018fd565b825550505050565b600090565b620019d3620019c4565b620019e081848462001999565b505050565b5b8181101562001a0857620019fc600082620019c9565b600181019050620019e6565b5050565b601f82111562001a575762001a2181620018cb565b62001a2c84620018e0565b8101602085101562001a3c578190505b62001a5462001a4b85620018e0565b830182620019e5565b50505b505050565b600082821c905092915050565b600062001a7c6000198460080262001a5c565b1980831691505092915050565b600062001a97838362001a69565b9150826002028217905092915050565b62001ab2826200182d565b67ffffffffffffffff81111562001ace5762001acd62001838565b5b62001ada825462001896565b62001ae782828562001a0c565b600060209050601f83116001811462001b1f576000841562001b0a578287015190505b62001b16858262001a89565b86555062001b86565b601f19841662001b2f86620018cb565b60005b8281101562001b595784890151825560018201915060208501945060208101905062001b32565b8683101562001b79578489015162001b75601f89168262001a69565b8355505b6001600288020188555050505b505050505050565b7f4e487b7100000000000000000000000000000000000000000000000000000000600052601160045260246000fd5b600062001bca8262001953565b91507fffffffffffffffffffffffffffffffffffffffffffffffffffffffffffffffff820362001bff5762001bfe62001b8e565b5b600182019050919050565b6121f98062001c1a6000396000f3fe608060405234801561001057600080fd5b50600436106100885760003560e01c806379b233db1161005b57806379b233db14610106578063832880e714610122578063a33fc09714610140578063ddf8c1441461015c57610088565b80630c0c10061461008d57806322366844146100a957806322e8c87d146100c7578063408bf4c3146100e7575b600080fd5b6100a760048036038101906100a291906114f0565b610178565b005b6100b1610349565b6040516100be91906115b4565b60405180910390f35b6100cf61039f565b6040516100de93929190611aa4565b60405180910390f35b6100ef6109ee565b6040516100fd929190611c61565b60405180910390f35b610120600480360381019061011b9190611cc4565b610c26565b005b61012a610de0565b6040516101379190611d70565b60405180910390f35b61015a600480360381019061015591906114f0565b610efe565b005b610176600480360381019061017191906114f0565b6110cf565b005b600360003373ffffffffffffffffffffffffffffffffffffffff1673ffffffffffffffffffffffffffffffffffffffff1681526020019081526020016000206040518060e001604052808881526020018760ff1681526020018661ffff1681526020018560ff1681526020018461ffff1681526020018373ffffffffffffffffffffffffffffffffffffffff168152602001600015158152509080600181540180825580915050600190039060005260206000209060020201600090919091909150600082015181600001908161024f9190611fa8565b5060208201518160010160006101000a81548160ff021916908360ff16021790555060408201518160010160016101000a81548161ffff021916908361ffff16021790555060608201518160010160036101000a81548160ff021916908360ff16021790555060808201518160010160046101000a81548161ffff021916908361ffff16021790555060a08201518160010160066101000a81548173ffffffffffffffffffffffffffffffffffffffff021916908373ffffffffffffffffffffffffffffffffffffffff16021790555060c082015181600101601a6101000a81548160ff0219169083151502179055505050505050505050565b60008060003373ffffffffffffffffffffffffffffffffffffffff1673ffffffffffffffffffffffffffffffffffffffff16815260200190815260200160002060010160009054906101000a900460ff16905090565b6060806060600260003373ffffffffffffffffffffffffffffffffffffffff1673ffffffffffffffffffffffffffffffffffffffff168152602001908152602001600020600360003373ffffffffffffffffffffffffffffffffffffffff1673ffffffffffffffffffffffffffffffffffffffff168152602001908152602001600020600460003373ffffffffffffffffffffffffffffffffffffffff1673ffffffffffffffffffffffffffffffffffffffff16815260200190815260200160002082805480602002602001604051908101604052809291908181526020016000905b8282101561063157838290600052602060002090600202016040518060e00160405290816000820180546104b590611dc1565b80601f01602080910402602001604051908101604052809291908181526020018280546104e190611dc1565b801561052e5780601f106105035761010080835404028352916020019161052e565b820191906000526020600020905b81548152906001019060200180831161051157829003601f168201915b505050505081526020016001820160009054906101000a900460ff1660ff1660ff1681526020016001820160019054906101000a900461ffff1661ffff1661ffff1681526020016001820160039054906101000a900460ff1660ff1660ff1681526020016001820160049054906101000a900461ffff1661ffff1661ffff1681526020016001820160069054906101000a900473ffffffffffffffffffffffffffffffffffffffff1673ffffffffffffffffffffffffffffffffffffffff1673ffffffffffffffffffffffffffffffffffffffff16815260200160018201601a9054906101000a900460ff16151515158152505081526020019060010190610482565b50505050925081805480602002602001604051908101604052809291908181526020016000905b8282101561080757838290600052602060002090600202016040518060e001604052908160008201805461068b90611dc1565b80601f01602080910402602001604051908101604052809291908181526020018280546106b790611dc1565b80156107045780601f106106d957610100808354040283529160200191610704565b820191906000526020600020905b8154815290600101906020018083116106e757829003601f168201915b505050505081526020016001820160009054906101000a900460ff1660ff1660ff1681526020016001820160019054906101000a900461ffff1661ffff1661ffff1681526020016001820160039054906101000a900460ff1660ff1660ff1681526020016001820160049054906101000a900461ffff1661ffff1661ffff1681526020016001820160069054906101000a900473ffffffffffffffffffffffffffffffffffffffff1673ffffffffffffffffffffffffffffffffffffffff1673ffffffffffffffffffffffffffffffffffffffff16815260200160018201601a9054906101000a900460ff16151515158152505081526020019060010190610658565b50505050915080805480602002602001604051908101604052809291908181526020016000905b828210156109dd57838290600052602060002090600202016040518060e001604052908160008201805461086190611dc1565b80601f016020809104026020016040519081016040528092919081815260200182805461088d90611dc1565b80156108da5780601f106108af576101008083540402835291602001916108da565b820191906000526020600020905b8154815290600101906020018083116108bd57829003601f168201915b505050505081526020016001820160009054906101000a900460ff1660ff1660ff1681526020016001820160019054906101000a900461ffff1661ffff1661ffff1681526020016001820160039054906101000a900460ff1660ff1660ff1681526020016001820160049054906101000a900461ffff1661ffff1661ffff1681526020016001820160069054906101000a900473ffffffffffffffffffffffffffffffffffffffff1673ffffffffffffffffffffffffffffffffffffffff1673ffffffffffffffffffffffffffffffffffffffff16815260200160018201601a9054906101000a900460ff1615151515815250508152602001906001019061082e565b505050509050925092509250909192565b606080600060018054905067ffffffffffffffff811115610a1257610a116112f4565b5b604051908082528060200260200182016040528015610a4557816020015b6060815260200190600190039081610a305790505b50905060005b600180549050811015610b915760008060018381548110610a6f57610a6e61207a565b5b9060005260206000200160009054906101000a900473ffffffffffffffffffffffffffffffffffffffff1673ffffffffffffffffffffffffffffffffffffffff1673ffffffffffffffffffffffffffffffffffffffff1681526020019081526020016000206000018054610ae290611dc1565b80601f0160208091040260200160405190810160405280929190818152602001828054610b0e90611dc1565b8015610b5b5780601f10610b3057610100808354040283529160200191610b5b565b820191906000526020600020905b815481529060010190602001808311610b3e57829003601f168201915b5050505050828281518110610b7357610b7261207a565b5b60200260200101819052508080610b89906120d8565b915050610a4b565b5060018181805480602002602001604051908101604052809291908181526020018280548015610c1657602002820191906000526020600020905b8160009054906101000a900473ffffffffffffffffffffffffffffffffffffffff1673ffffffffffffffffffffffffffffffffffffffff1681526020019060010190808311610bcc575b5050505050915092509250509091565b600015156000803373ffffffffffffffffffffffffffffffffffffffff1673ffffffffffffffffffffffffffffffffffffffff16815260200190815260200160002060010160009054906101000a900460ff16151514610cbb576040517f08c379a0000000000000000000000000000000000000000000000000000000008152600401610cb2906121a3565b60405180910390fd5b8015610d25576001339080600181540180825580915050600190039060005260206000200160009091909190916101000a81548173ffffffffffffffffffffffffffffffffffffffff021916908373ffffffffffffffffffffffffffffffffffffffff1602179055505b60405180606001604052808381526020016001151581526020018215158152506000803373ffffffffffffffffffffffffffffffffffffffff1673ffffffffffffffffffffffffffffffffffffffff1681526020019081526020016000206000820151816000019081610d989190611fa8565b5060208201518160010160006101000a81548160ff02191690831515021790555060408201518160010160016101000a81548160ff0219169083151502179055509050505050565b610de86112a0565b6000803373ffffffffffffffffffffffffffffffffffffffff1673ffffffffffffffffffffffffffffffffffffffff168152602001908152602001600020604051806060016040529081600082018054610e4190611dc1565b80601f0160208091040260200160405190810160405280929190818152602001828054610e6d90611dc1565b8015610eba5780601f10610e8f57610100808354040283529160200191610eba565b820191906000526020600020905b815481529060010190602001808311610e9d57829003601f168201915b505050505081526020016001820160009054906101000a900460ff161515151581526020016001820160019054906101000a900460ff161515151581525050905090565b600260003373ffffffffffffffffffffffffffffffffffffffff1673ffffffffffffffffffffffffffffffffffffffff1681526020019081526020016000206040518060e001604052808881526020018760ff1681526020018661ffff1681526020018560ff1681526020018461ffff1681526020018373ffffffffffffffffffffffffffffffffffffffff1681526020016000151581525090806001815401808255809150506001900390600052602060002090600202016000909190919091506000820151816000019081610fd59190611fa8565b5060208201518160010160006101000a81548160ff021916908360ff16021790555060408201518160010160016101000a81548161ffff021916908361ffff16021790555060608201518160010160036101000a81548160ff021916908360ff16021790555060808201518160010160046101000a81548161ffff021916908361ffff16021790555060a08201518160010160066101000a81548173ffffffffffffffffffffffffffffffffffffffff021916908373ffffffffffffffffffffffffffffffffffffffff16021790555060c082015181600101601a6101000a81548160ff0219169083151502179055505050505050505050565b600460003373ffffffffffffffffffffffffffffffffffffffff1673ffffffffffffffffffffffffffffffffffffffff1681526020019081526020016000206040518060e001604052808881526020018760ff1681526020018661ffff1681526020018560ff1681526020018461ffff1681526020018373ffffffffffffffffffffffffffffffffffffffff16815260200160001515815250908060018154018082558091505060019003906000526020600020906002020160009091909190915060008201518160000190816111a69190611fa8565b5060208201518160010160006101000a81548160ff021916908360ff16021790555060408201518160010160016101000a81548161ffff021916908361ffff16021790555060608201518160010160036101000a81548160ff021916908360ff16021790555060808201518160010160046101000a81548161ffff021916908361ffff16021790555060a08201518160010160066101000a81548173ffffffffffffffffffffffffffffffffffffffff021916908373ffffffffffffffffffffffffffffffffffffffff16021790555060c082015181600101601a6101000a81548160ff0219169083151502179055505050505050505050565b6040518060600160405280606081526020016000151581526020016000151581525090565b6000604051905090565b600080fd5b600080fd5b600080fd5b600080fd5b6000601f19601f8301169050919050565b7f4e487b7100000000000000000000000000000000000000000000000000000000600052604160045260246000fd5b61132c826112e3565b810181811067ffffffffffffffff8211171561134b5761134a6112f4565b5b80604052505050565b600061135e6112c5565b905061136a8282611323565b919050565b600067ffffffffffffffff82111561138a576113896112f4565b5b611393826112e3565b9050602081019050919050565b82818337600083830152505050565b60006113c26113bd8461136f565b611354565b9050828152602081018484840111156113de576113dd6112de565b5b6113e98482856113a0565b509392505050565b600082601f830112611406576114056112d9565b5b81356114168482602086016113af565b91505092915050565b600060ff82169050919050565b6114358161141f565b811461144057600080fd5b50565b6000813590506114528161142c565b92915050565b600061ffff82169050919050565b61146f81611458565b811461147a57600080fd5b50565b60008135905061148c81611466565b92915050565b600073ffffffffffffffffffffffffffffffffffffffff82169050919050565b60006114bd82611492565b9050919050565b6114cd816114b2565b81146114d857600080fd5b50565b6000813590506114ea816114c4565b92915050565b60008060008060008060c0878903121561150d5761150c6112cf565b5b600087013567ffffffffffffffff81111561152b5761152a6112d4565b5b61153789828a016113f1565b965050602061154889828a01611443565b955050604061155989828a0161147d565b945050606061156a89828a01611443565b935050608061157b89828a0161147d565b92505060a061158c89828a016114db565b9150509295509295509295565b60008115159050919050565b6115ae81611599565b82525050565b60006020820190506115c960008301846115a5565b92915050565b600081519050919050565b600082825260208201905092915050565b6000819050602082019050919050565b600081519050919050565b600082825260208201905092915050565b60005b8381101561163557808201518184015260208101905061161a565b60008484015250505050565b600061164c826115fb565b6116568185611606565b9350611666818560208601611617565b61166f816112e3565b840191505092915050565b6116838161141f565b82525050565b61169281611458565b82525050565b6116a1816114b2565b82525050565b6116b081611599565b82525050565b600060e08301600083015184820360008601526116d38282611641565b91505060208301516116e8602086018261167a565b5060408301516116fb6040860182611689565b50606083015161170e606086018261167a565b5060808301516117216080860182611689565b5060a083015161173460a0860182611698565b5060c083015161174760c08601826116a7565b508091505092915050565b600061175e83836116b6565b905092915050565b6000602082019050919050565b600061177e826115cf565b61178881856115da565b93508360208202850161179a856115eb565b8060005b858110156117d657848403895281516117b78582611752565b94506117c283611766565b925060208a0199505060018101905061179e565b50829750879550505050505092915050565b600081519050919050565b600082825260208201905092915050565b6000819050602082019050919050565b600060e08301600083015184820360008601526118318282611641565b9150506020830151611846602086018261167a565b5060408301516118596040860182611689565b50606083015161186c606086018261167a565b50608083015161187f6080860182611689565b5060a083015161189260a0860182611698565b5060c08301516118a560c08601826116a7565b508091505092915050565b60006118bc8383611814565b905092915050565b6000602082019050919050565b60006118dc826117e8565b6118e681856117f3565b9350836020820285016118f885611804565b8060005b85811015611934578484038952815161191585826118b0565b9450611920836118c4565b925060208a019950506001810190506118fc565b50829750879550505050505092915050565b600081519050919050565b600082825260208201905092915050565b6000819050602082019050919050565b600060e083016000830151848203600086015261198f8282611641565b91505060208301516119a4602086018261167a565b5060408301516119b76040860182611689565b5060608301516119ca606086018261167a565b5060808301516119dd6080860182611689565b5060a08301516119f060a0860182611698565b5060c0830151611a0360c08601826116a7565b508091505092915050565b6000611a1a8383611972565b905092915050565b6000602082019050919050565b6000611a3a82611946565b611a448185611951565b935083602082028501611a5685611962565b8060005b85811015611a925784840389528151611a738582611a0e565b9450611a7e83611a22565b925060208a01995050600181019050611a5a565b50829750879550505050505092915050565b60006060820190508181036000830152611abe8186611773565b90508181036020830152611ad281856118d1565b90508181036040830152611ae68184611a2f565b9050949350505050565b600081519050919050565b600082825260208201905092915050565b6000819050602082019050919050565b6000611b288383611698565b60208301905092915050565b6000602082019050919050565b6000611b4c82611af0565b611b568185611afb565b9350611b6183611b0c565b8060005b83811015611b92578151611b798882611b1c565b9750611b8483611b34565b925050600181019050611b65565b5085935050505092915050565b600081519050919050565b600082825260208201905092915050565b6000819050602082019050919050565b6000611bd78383611641565b905092915050565b6000602082019050919050565b6000611bf782611b9f565b611c018185611baa565b935083602082028501611c1385611bbb565b8060005b85811015611c4f5784840389528151611c308582611bcb565b9450611c3b83611bdf565b925060208a01995050600181019050611c17565b50829750879550505050505092915050565b60006040820190508181036000830152611c7b8185611b41565b90508181036020830152611c8f8184611bec565b90509392505050565b611ca181611599565b8114611cac57600080fd5b50565b600081359050611cbe81611c98565b92915050565b60008060408385031215611cdb57611cda6112cf565b5b600083013567ffffffffffffffff811115611cf957611cf86112d4565b5b611d05858286016113f1565b9250506020611d1685828601611caf565b9150509250929050565b60006060830160008301518482036000860152611d3d8282611641565b9150506020830151611d5260208601826116a7565b506040830151611d6560408601826116a7565b508091505092915050565b60006020820190508181036000830152611d8a8184611d20565b905092915050565b7f4e487b7100000000000000000000000000000000000000000000000000000000600052602260045260246000fd5b60006002820490506001821680611dd957607f821691505b602082108103611dec57611deb611d92565b5b50919050565b60008190508160005260206000209050919050565b60006020601f8301049050919050565b600082821b905092915050565b600060088302611e547fffffffffffffffffffffffffffffffffffffffffffffffffffffffffffffffff82611e17565b611e5e8683611e17565b95508019841693508086168417925050509392505050565b6000819050919050565b6000819050919050565b6000611ea5611ea0611e9b84611e76565b611e80565b611e76565b9050919050565b6000819050919050565b611ebf83611e8a565b611ed3611ecb82611eac565b848454611e24565b825550505050565b600090565b611ee8611edb565b611ef3818484611eb6565b505050565b5b81811015611f1757611f0c600082611ee0565b600181019050611ef9565b5050565b601f821115611f5c57611f2d81611df2565b611f3684611e07565b81016020851015611f45578190505b611f59611f5185611e07565b830182611ef8565b50505b505050565b600082821c905092915050565b6000611f7f60001984600802611f61565b1980831691505092915050565b6000611f988383611f6e565b9150826002028217905092915050565b611fb1826115fb565b67ffffffffffffffff811115611fca57611fc96112f4565b5b611fd48254611dc1565b611fdf828285611f1b565b600060209050601f8311600181146120125760008415612000578287015190505b61200a8582611f8c565b865550612072565b601f19841661202086611df2565b60005b8281101561204857848901518255600182019150602085019450602081019050612023565b868310156120655784890151612061601f891682611f6e565b8355505b6001600288020188555050505b505050505050565b7f4e487b7100000000000000000000000000000000000000000000000000000000600052603260045260246000fd5b7f4e487b7100000000000000000000000000000000000000000000000000000000600052601160045260246000fd5b60006120e382611e76565b91507fffffffffffffffffffffffffffffffffffffffffffffffffffffffffffffffff8203612115576121146120a9565b5b600182019050919050565b600082825260208201905092915050565b7f4164647265737320616c7265616479207265676973746572656420776974682060008201527f616e206163636f756e742e000000000000000000000000000000000000000000602082015250565b600061218d602b83612120565b915061219882612131565b604082019050919050565b600060208201905081810360008301526121bc81612180565b905091905056fea26469706673582212206a0ca65e12b1d386b8cf6e0f7f3a6e6eee78ec457aa75d69d9db67d8518c83de64736f6c634300081100334269726c6120496e73746974757465206f6620546563686e6f6c6f677920616e6420536369656e63652c2050696c616e69202d20447562616941627520446861626920476173204c6971756566616374696f6e20436f6d70616e79204c696d697465642028414447415329532050204a61696e205363686f6f6c206f6620476c6f62616c204d616e6167656d656e742044756261692043616d707573416275204468616269204f696c20526566696e696e6720436f6d70616e79202841444f5229456d697261746573204e6174696f6e616c204f696c20436f6d70616e792028454e4f4329456d69726174657320496e74656772617465642054656c65636f6d6d756e69636174696f6e7320436f6d70616e794162752044686162692053797374656d7320616e6420496e666f726d6174696f6e2043656e746572447562616920456c65637472696369747920616e6420576174657220417574686f72697479202844455741294162752044686162692047617320496e6475737472696573204c696d697465642028474153434f294475626169204f696c20526566696e696e6720436f6d70616e792028444f524329556e6976657273697479206f6620576f6c6c6f6e676f6e6720696e204475626169416275204468616269204e6174696f6e616c204f696c20436f6d70616e79202841444e4f43294475626169204e61747572616c2047617320436f6d70616e79204c696d697465642028445547415329416275204468616269204f696c20526566696e696e6720436f6d70616e79202854414b5245455229",
  "immutableReferences": {},
  "source": "// SPDX-License-Identifier: MIT\r\npragma solidity ^0.8.0;\r\npragma experimental ABIEncoderV2;\r\n\r\ncontract SmartContract {\r\n\r\n    struct WorkExperience {\r\n        string designation;\r\n        uint8 fromMonth;\r\n        uint16 fromYear;\r\n        uint8 toMonth;\r\n        uint16 toYear;\r\n        address issuingOrganization;\r\n        bool isVerified;\r\n    }\r\n\r\n    struct Certification {\r\n        string name;\r\n        uint8 issueMonth;\r\n        uint16 issueYear;\r\n        uint8 expirationMonth; // 0 if doesn't expire\r\n        uint16 expirationYear; // 0 if doesn't expire\r\n        address issuingOrganization;\r\n        bool isVerified;\r\n    }\r\n\r\n    struct Degree {\r\n        string title;\r\n        uint8 fromMonth;\r\n        uint16 fromYear;\r\n        uint8 toMonth;\r\n        uint16 toYear;\r\n        address issuingOrganization;\r\n        bool isVerified;\r\n    }\r\n\r\n    struct User {\r\n        string fullName;\r\n        bool isRegistered;\r\n        bool isCompany;\r\n    }\r\n\r\n    mapping(address => User) allUsers;\r\n    address[] companyAddresses;\r\n    // Candidate => Degrees\r\n    mapping(address => Degree[]) candidateDegrees;\r\n    // Candidate => Certifications\r\n    mapping(address => Certification[]) candidateCertifications;\r\n    // Candidate => Work Experiences\r\n    mapping(address => WorkExperience[]) candidateWorkExperiences;\r\n    \r\n\r\n    /** @dev\r\n     * This function is only for demo & should be removed before deployment on mainnet\r\n     */ \r\n    function boostrap() private {\r\n        string[47] memory names = [\r\n            // 10 Universities Below\r\n            \"University of Dubai\",\r\n            \"American University in Dubai\",\r\n            \"Zayed University\",\r\n            \"Dubai Medical College\",\r\n            \"University of Wollongong in Dubai\",\r\n            \"Middlesex University Dubai\",\r\n            \"Manipal University Dubai\",\r\n            \"Birla Institute of Technology and Science, Pilani - Dubai\",\r\n            \"Heriot-Watt University Dubai\",\r\n            \"S P Jain School of Global Management Dubai Campus\",\r\n            // 7 Certification Authorities Below\r\n            \"Udemy\",\r\n            \"Coursera\",\r\n            \"IBM\",\r\n            \"Microsoft\",\r\n            \"Google\",\r\n            \"Bureau Veritas Dubai\",\r\n            \"TUV SUD Middle East FZE\",\r\n            // 30 Job Companies Below\r\n            \"Dubai Silicon Oasis Authority\",\r\n            \"Dubaieye\",\r\n            \"Dubai Internet City\",\r\n            \"Tecom Group\",\r\n            \"Injazat Data Systems\",\r\n            \"Abu Dhabi Systems and Information Center\",\r\n            \"Emirates Integrated Telecommunications Company\",\r\n            \"Du Telecom\",\r\n            \"Neuways Middle East\",\r\n            \"Dubai Petroleum\",\r\n            \"Emirates National Oil Company (ENOC)\",\r\n            \"Dubai Supply Authority (DUSUP)\",\r\n            \"Abu Dhabi National Oil Company (ADNOC)\",\r\n            \"Abu Dhabi Oil Refining Company (TAKREER)\",\r\n            \"Dubai Natural Gas Company Limited (DUGAS)\",\r\n            \"Abu Dhabi Gas Industries Limited (GASCO)\",\r\n            \"Abu Dhabi Gas Liquefaction Company Limited (ADGAS)\",\r\n            \"Abu Dhabi Oil Refining Company (ADOR)\",\r\n            \"Dubai Oil Refining Company (DORC)\",\r\n            \"Emirates Group\",\r\n            \"Dubai Aluminum\",\r\n            \"Dubai Electricity and Water Authority (DEWA)\",\r\n            \"Dubai World Trade Centre\",\r\n            \"Dubai Airports\",\r\n            \"Dubai Silicon Oasis Authority\",\r\n            \"Dubai World\",\r\n            \"Dubai Industrial City\",\r\n            \"Dubai South\",\r\n            \"Dubai Holding\",\r\n            \"Dubai FDI\"\r\n        ];\r\n\r\n        address[47] memory addresses = [\r\n            0xbd909b88028445A706eB385FfE86aEd3dc859E63,\r\n            0x720366A18a4aF591710204dC75AD3d67E090a6dB,\r\n            0x579C26abF48abCC4BD12bdEf245CF75264c63cE5,\r\n            0xeD9346917AA7FCA8632162cd8Eabe11090408407,\r\n            0xbA14D5Eb8F38Bf8B69D26328f291d83Bc46a6F92,\r\n            0x498399F29B18aCc904f70B3BD9B49FA3298A43ea,\r\n            0x7eA7F230Fb81a8CBB2cA0acb7B439E0e22C61574,\r\n            0x46fa5aED911ECb05F9b0F0a1097197911E35cedE,\r\n            0xf794E3abFa38A8715C7C73f9aA3fFF9397b2Ab6f,\r\n            0xeBDcC2A8656811D4391E29f38833Eb45aD7435B4,\r\n            0xde630DDA9d8471a6da019Be84aBD67955D4dF737,\r\n            0x6Dd28B0448f52906E54eFCe07e045a2d5235c9dd,\r\n            0xFCcE884577e8141292cf01B6B8151ee58DDF4E89,\r\n            0x27758a77133F3C639b13fCE0E9bfDd761FC63a99,\r\n            0xF2fdBdf4ce705a65499807C06E9b2555b3A246af,\r\n            0x156bb0b8694Bb32613D19213Aa831FA35a7FaED7,\r\n            0xACB971d22bE689af41D3BC951a51d98CfC5f1285,\r\n            0x4dBA88fb1D62434A792b881d1c042260D7560301,\r\n            0xd220Cfe1F00bbeC7D33E7ce3E84a10EA6319DfE8,\r\n            0x74191823CDEc73659852b102EBF3b394361C0400,\r\n            0xd3dD672cb08b363a4418ffACAbb3e296dE51C1fc,\r\n            0xf0B90773e5CE54d5eEd8e466b6b01ca41038e92C,\r\n            0xac708413dc159996C0fd39e6483e339295f7EDdB,\r\n            0x1b37084Eeb880645556034711E04334ccd5e9403,\r\n            0x5DEfb46543fe2ba58299cBb5a7B6caC60eD92598,\r\n            0xF04B734596560878Cb71444b307fb89f24949947,\r\n            0x8740CD5143D3f3CAB4095Bd44901CAB7b6533021,\r\n            0x8828d40bcea1B75cd566c7b4738ece974F202125,\r\n            0x4763aCfD72FB8FeE0AD93c3A1dF5F95B34366Cd1,\r\n            0xeD8c2904d28A41D7ad999E399D0c36E6EcC616cb,\r\n            0xfC0943d3cbfc82b1389e24e1E367f8381c89D4A7,\r\n            0xC1DEd051E5BA5A0D78a97298F7507E3CeE05b5Ef,\r\n            0x1485EfD3069a47c061e8ee4f368d0c281EE5d072,\r\n            0xa13c1497f3A753754eE60D6a8834B4b6a282a702,\r\n            0x0725675C6B734B94b362D48A5374f44985bB6613,\r\n            0x71A519405224F9B4e5798E35aF62F0b7e2862eed,\r\n            0x3DE2bc4E3092eDA25936dBd99B18D765a834a7A6,\r\n            0x5aB347895E0E06812DdD75EB6C7105de059C4c29,\r\n            0x17025D0BC02c9DFC0E375fD92272f7278ff0d955,\r\n            0x32b42640aE11d8e6C57E275F470A2Cb69736e21b,\r\n            0x333b5462ca4eD82F26459E2fc4a539C11d741124,\r\n            0x4804B60Fd5F292D38022401c5B67673Bb6753ce8,\r\n            0xdc0db174f69eb7Be9Bc2068Ed21588f793a8db7D,\r\n            0xaa6850AE1cB621f64F754005C15abe98417fcC4b,\r\n            0x5aE20eb15636f5E9a51BCCFd90a194A14Fc1430B,\r\n            0xb07260C5760F02821e8796c434a2B94ab8A7CF91,\r\n            0xea8dd0978BB09d9BcA9E178984428514EB3aB630\r\n        ];\r\n\r\n        for (uint i = 0; i < 47; i++) {\r\n            companyAddresses.push(addresses[i]);\r\n            allUsers[addresses[i]] = User(names[i], true, true);\r\n        }\r\n    }\r\n\r\n    constructor()  { boostrap(); }\r\n\r\n    function isRegistered() public view returns (bool) {\r\n        return allUsers[msg.sender].isRegistered;\r\n    }\r\n\r\n    // Registers a User with the Smart Contract\r\n    function registerUser(string memory fullName, bool isCompany) public {\r\n        require(\r\n            allUsers[msg.sender].isRegistered == false,\r\n            \"Address already registered with an account.\"\r\n        );\r\n\r\n        if(isCompany) {\r\n            companyAddresses.push(msg.sender);\r\n        }\r\n        allUsers[msg.sender] = User(fullName, true, isCompany);\r\n    }\r\n    \r\n    function getUser() public view returns (User memory) {\r\n        return allUsers[msg.sender];\r\n    }\r\n\r\n    function addDegree( \r\n        string memory title,\r\n        uint8 fromMonth,\r\n        uint16 fromYear,\r\n        uint8 toMonth,\r\n        uint16 toYear,\r\n        address issuingOrganization\r\n    ) public {\r\n        // Only Registered Users Require\r\n        candidateDegrees[msg.sender].push(\r\n            Degree(title, fromMonth, fromYear, toMonth, toYear, issuingOrganization, false)\r\n        );\r\n    }\r\n\r\n    function addCertification( \r\n        string memory name,\r\n        uint8 issueMonth,\r\n        uint16 issueYear,\r\n        uint8 expirationMonth,\r\n        uint16 expirationYear,\r\n        address issuingOrganization\r\n    ) public {\r\n        // Only Registered Users Require\r\n        candidateCertifications[msg.sender].push(\r\n            Certification(name, issueMonth, issueYear, expirationMonth, expirationYear, issuingOrganization, false)\r\n        );\r\n    }\r\n\r\n    function addWorkExperience( \r\n        string memory designation,\r\n        uint8 fromMonth,\r\n        uint16 fromYear,\r\n        uint8 toMonth,\r\n        uint16 toYear,\r\n        address issuingOrganization\r\n    ) public {\r\n        // Only Registered Users Require\r\n        candidateWorkExperiences[msg.sender].push(\r\n            WorkExperience(designation, fromMonth, fromYear, toMonth, toYear, issuingOrganization, false)\r\n        );\r\n    }\r\n\r\n    function getAllCompanies() public view returns(address[] memory, string[] memory) {\r\n        string[] memory companyNames = new string[](companyAddresses.length);\r\n\r\n        for(uint i = 0; i < companyAddresses.length; i++) {\r\n            companyNames[i] = allUsers[companyAddresses[i]].fullName;\r\n        }\r\n\r\n        return (companyAddresses, companyNames);\r\n    }\r\n\r\n    // Get all data of a user\r\n    function getUserData() public view returns (Degree[] memory, Certification[] memory, WorkExperience[] memory) {\r\n        return (\r\n            candidateDegrees[msg.sender], \r\n            candidateCertifications[msg.sender], \r\n            candidateWorkExperiences[msg.sender]\r\n        );\r\n    }\r\n}",
  "sourcePath": "D:\\Work\\Usama\\special-spoon\\truffle-backend\\contracts\\SmartContract.sol",
  "compiler": {
    "name": "solc",
    "version": "0.8.17+commit.8df45f5f.Emscripten.clang"
  },
  "schemaVersion": "3.4.13",
  "updatedAt": "2023-03-24T14:35:07.815Z",
  "devdoc": {
    "kind": "dev",
    "methods": {},
    "version": 1
  },
  "userdoc": {
    "kind": "user",
    "methods": {},
    "version": 1
  }
}